{
  "_format": "hh-sol-artifact-1",
  "contractName": "BuyMeACoffee",
  "sourceName": "contracts/BuyMeACoffee.sol",
  "abi": [
    {
      "inputs": [],
      "stateMutability": "nonpayable",
      "type": "constructor"
    },
    {
      "anonymous": false,
      "inputs": [
        {
          "indexed": false,
          "internalType": "address",
          "name": "",
          "type": "address"
        },
        {
          "indexed": false,
          "internalType": "uint256",
          "name": "",
          "type": "uint256"
        },
        {
          "indexed": false,
          "internalType": "string",
          "name": "",
          "type": "string"
        },
        {
          "indexed": false,
          "internalType": "string",
          "name": "",
          "type": "string"
        }
      ],
      "name": "newMemo",
      "type": "event"
    },
    {
      "inputs": [
        {
          "internalType": "string",
          "name": "_name",
          "type": "string"
        },
        {
          "internalType": "string",
          "name": "_message",
          "type": "string"
        }
      ],
      "name": "buyCoffee",
      "outputs": [],
      "stateMutability": "payable",
      "type": "function"
    },
    {
      "inputs": [],
      "name": "getMemos",
      "outputs": [
        {
          "components": [
            {
              "internalType": "address",
              "name": "from",
              "type": "address"
            },
            {
              "internalType": "uint256",
              "name": "time",
              "type": "uint256"
            },
            {
              "internalType": "string",
              "name": "name",
              "type": "string"
            },
            {
              "internalType": "string",
              "name": "message",
              "type": "string"
            }
          ],
          "internalType": "struct BuyMeACoffee.Memo[]",
          "name": "",
          "type": "tuple[]"
        }
      ],
      "stateMutability": "view",
      "type": "function"
    },
    {
      "inputs": [
        {
          "internalType": "uint256",
          "name": "",
          "type": "uint256"
        }
      ],
      "name": "memoList",
      "outputs": [
        {
          "internalType": "address",
          "name": "from",
          "type": "address"
        },
        {
          "internalType": "uint256",
          "name": "time",
          "type": "uint256"
        },
        {
          "internalType": "string",
          "name": "name",
          "type": "string"
        },
        {
          "internalType": "string",
          "name": "message",
          "type": "string"
        }
      ],
      "stateMutability": "view",
      "type": "function"
    }
  ],
  "bytecode": "0x608060405234801561001057600080fd5b5033600160006101000a81548173ffffffffffffffffffffffffffffffffffffffff021916908373ffffffffffffffffffffffffffffffffffffffff160217905550610cab806100616000396000f3fe6080604052600436106100345760003560e01c8063204206e114610039578063865c517214610055578063d2776ec514610080575b600080fd5b610053600480360381019061004e91906107ec565b6100c0565b005b34801561006157600080fd5b5061006a61029c565b6040516100779190610a72565b60405180910390f35b34801561008c57600080fd5b506100a760048036038101906100a29190610ac0565b61047f565b6040516100b79493929190610b55565b60405180910390f35b60003411610103576040517f08c379a00000000000000000000000000000000000000000000000000000000081526004016100fa90610bf4565b60405180910390fd5b600160009054906101000a900473ffffffffffffffffffffffffffffffffffffffff1673ffffffffffffffffffffffffffffffffffffffff166108fc349081150290604051600060405180830381858888f1935050505015801561016b573d6000803e3d6000fd5b50600060405180608001604052803373ffffffffffffffffffffffffffffffffffffffff16815260200142815260200184815260200183815250908060018154018082558091505060019003906000526020600020906004020160009091909190915060008201518160000160006101000a81548173ffffffffffffffffffffffffffffffffffffffff021916908373ffffffffffffffffffffffffffffffffffffffff16021790555060208201518160010155604082015181600201908051906020019061023b9291906105ef565b5060608201518160030190805190602001906102589291906105ef565b5050507f9d3a1a6a7a31ef2d2a038d45b3d5fadbcac748ac4ccccac9da7c8cb6b6424fc3334284846040516102909493929190610b55565b60405180910390a15050565b60606000805480602002602001604051908101604052809291908181526020016000905b8282101561047657838290600052602060002090600402016040518060800160405290816000820160009054906101000a900473ffffffffffffffffffffffffffffffffffffffff1673ffffffffffffffffffffffffffffffffffffffff1673ffffffffffffffffffffffffffffffffffffffff1681526020016001820154815260200160028201805461035390610c43565b80601f016020809104026020016040519081016040528092919081815260200182805461037f90610c43565b80156103cc5780601f106103a1576101008083540402835291602001916103cc565b820191906000526020600020905b8154815290600101906020018083116103af57829003601f168201915b505050505081526020016003820180546103e590610c43565b80601f016020809104026020016040519081016040528092919081815260200182805461041190610c43565b801561045e5780601f106104335761010080835404028352916020019161045e565b820191906000526020600020905b81548152906001019060200180831161044157829003601f168201915b505050505081525050815260200190600101906102c0565b50505050905090565b6000818154811061048f57600080fd5b90600052602060002090600402016000915090508060000160009054906101000a900473ffffffffffffffffffffffffffffffffffffffff16908060010154908060020180546104de90610c43565b80601f016020809104026020016040519081016040528092919081815260200182805461050a90610c43565b80156105575780601f1061052c57610100808354040283529160200191610557565b820191906000526020600020905b81548152906001019060200180831161053a57829003601f168201915b50505050509080600301805461056c90610c43565b80601f016020809104026020016040519081016040528092919081815260200182805461059890610c43565b80156105e55780601f106105ba576101008083540402835291602001916105e5565b820191906000526020600020905b8154815290600101906020018083116105c857829003601f168201915b5050505050905084565b8280546105fb90610c43565b90600052602060002090601f01602090048101928261061d5760008555610664565b82601f1061063657805160ff1916838001178555610664565b82800160010185558215610664579182015b82811115610663578251825591602001919060010190610648565b5b5090506106719190610675565b5090565b5b8082111561068e576000816000905550600101610676565b5090565b6000604051905090565b600080fd5b600080fd5b600080fd5b600080fd5b6000601f19601f8301169050919050565b7f4e487b7100000000000000000000000000000000000000000000000000000000600052604160045260246000fd5b6106f9826106b0565b810181811067ffffffffffffffff82111715610718576107176106c1565b5b80604052505050565b600061072b610692565b905061073782826106f0565b919050565b600067ffffffffffffffff821115610757576107566106c1565b5b610760826106b0565b9050602081019050919050565b82818337600083830152505050565b600061078f61078a8461073c565b610721565b9050828152602081018484840111156107ab576107aa6106ab565b5b6107b684828561076d565b509392505050565b600082601f8301126107d3576107d26106a6565b5b81356107e384826020860161077c565b91505092915050565b600080604083850312156108035761080261069c565b5b600083013567ffffffffffffffff811115610821576108206106a1565b5b61082d858286016107be565b925050602083013567ffffffffffffffff81111561084e5761084d6106a1565b5b61085a858286016107be565b9150509250929050565b600081519050919050565b600082825260208201905092915050565b6000819050602082019050919050565b600073ffffffffffffffffffffffffffffffffffffffff82169050919050565b60006108bb82610890565b9050919050565b6108cb816108b0565b82525050565b6000819050919050565b6108e4816108d1565b82525050565b600081519050919050565b600082825260208201905092915050565b60005b83811015610924578082015181840152602081019050610909565b83811115610933576000848401525b50505050565b6000610944826108ea565b61094e81856108f5565b935061095e818560208601610906565b610967816106b0565b840191505092915050565b600060808301600083015161098a60008601826108c2565b50602083015161099d60208601826108db565b50604083015184820360408601526109b58282610939565b915050606083015184820360608601526109cf8282610939565b9150508091505092915050565b60006109e88383610972565b905092915050565b6000602082019050919050565b6000610a0882610864565b610a12818561086f565b935083602082028501610a2485610880565b8060005b85811015610a605784840389528151610a4185826109dc565b9450610a4c836109f0565b925060208a01995050600181019050610a28565b50829750879550505050505092915050565b60006020820190508181036000830152610a8c81846109fd565b905092915050565b610a9d816108d1565b8114610aa857600080fd5b50565b600081359050610aba81610a94565b92915050565b600060208284031215610ad657610ad561069c565b5b6000610ae484828501610aab565b91505092915050565b610af6816108b0565b82525050565b610b05816108d1565b82525050565b600082825260208201905092915050565b6000610b27826108ea565b610b318185610b0b565b9350610b41818560208601610906565b610b4a816106b0565b840191505092915050565b6000608082019050610b6a6000830187610aed565b610b776020830186610afc565b8181036040830152610b898185610b1c565b90508181036060830152610b9d8184610b1c565b905095945050505050565b7f43616e27742062757920636f6666656520776974682030206574680000000000600082015250565b6000610bde601b83610b0b565b9150610be982610ba8565b602082019050919050565b60006020820190508181036000830152610c0d81610bd1565b9050919050565b7f4e487b7100000000000000000000000000000000000000000000000000000000600052602260045260246000fd5b60006002820490506001821680610c5b57607f821691505b60208210811415610c6f57610c6e610c14565b5b5091905056fea264697066735822122024d41c8cb88b221703de68712e58c7b28f5db871b9548e7e7bd09c84593fce2464736f6c63430008090033",
  "linkReferences": {},
  "deployedLinkReferences": {}
}